:020000040000FA
:02000000DE28F8
:040002000034003492
:020008005A2874
:06000A0022080F39A000DE
:100010000F3020060319BA210D280E3020060319CF
:10002000B42112280D3020060319AE2117280C30F8
:1000300020060319A8211C280B3020060319A22131
:1000400021280A30200603199C2126280930200681
:10005000031996212B2808302006031990213028F7
:100060000730200603198A21352806302006031997
:1000700084213A280530200603197E213F280430C8
:100080002006031978214428033020060319722121
:1000900049280230200603196C214E280130200621
:1000A00003196621532800302006031960215828BF
:1000B0000B106E287028831603131618052896183F
:1000C00005281619052896190528161A0528961ABE
:1000D0000528161B0528961B05286E280B10DD2801
:1000E000A20BD9289630A200A5010330A500200854
:1000F000A600A607A50BFD28240826070F39A70090
:100100000F3027060319BA2185280E302706031958
:10011000B4218A280D3027060319AE218F280C3010
:1001200027060319A82194280B3027060319A221BA
:1001300099280A30270603199C219E280930270692
:1001400003199621A3280830270603199021A8280F
:100150000730270603198A21AD2806302706031920
:100160008421B2280530270603197E21B7280430E0
:10017000270603197821BC280330270603197221AA
:10018000C1280230270603196C21C6280130270632
:1001900003196621CB280030270603196021A00B24
:1001A000D4282408A000D9280F302406031DA40A4F
:1001B000D928D93081000B11DD28090083160313DB
:1001C000FF30850087018801FF308600831203130A
:1001D00086018312031387018312031388010530FC
:1001E000A4000430A000A101A701A801A901AA014F
:1001F000A5010230A5002008A6002607A50BFD28B2
:10020000A600240826070F39A7000F302706031978
:10021000BA290A290E3027060319B4290F290D30EF
:1002200027060319AE2914290C3027060319A8291B
:1002300019290B3027060319A2291E290A3027067F
:1002400003199C29232909302706031996292829EF
:1002500008302706031990292D290730270603198E
:100260008A293229063027060319842937290530BF
:10027000270603197E293C2904302706031978290B
:10028000412903302706031972294629023027061F
:1002900003196C294B2901302706031966295029B7
:1002A0000030270603196029A00B58292408A00054
:1002B0000F302406031DA40AF5280230D321542947
:1002C0000000C03088003F3087005D2900003030DA
:1002D00088003F3087005D2900000C3088003F30E7
:1002E00087005D290000033088003F3087005D29CA
:1002F0000000C0308800CF3087005D29000030301A
:100300008800CF3087005D2900000C308800CF3096
:1003100087005D29000003308800CF3087005D2909
:100320000000C0308800F33087005D2900003030C5
:100330008800F33087005D2900000C308800F3301E
:1003400087005D29000003308800F33087005D29B5
:100350000000C0308800FC3087005D29000030308C
:100360008800FC3087005D2900000C308800FC30DC
:1003700087005D29000003308800FC3087005D297C
:10038000A10BC029FF30A10008001430AA0064307E
:10039000A900FA30A8000000A80BCB29A90BC92995
:1003A000AA0BC1290800B3000730B0002F30B100FC
:1003B0000330B200B00BDD29B10BDF29B20BDA2913
:0C03C000B303031DD429E4290000080049
:02400E00F03F81
:00000001FF
