:020000040000FA
:020000001A28BC
:040002000034003492
:0800080005280B180828090067
:10001000061805298618152906192529861935294E
:10002000061A4529861A5529061B6529861B752936
:100030000B1009008312031388308B0083160313FF
:10004000FF30860085018701880189018316031727
:100050008801890183160313FF30960083128312EF
:100060000313850186018701880189010530A300FA
:100070000430A000A101A601A4010230A4002008C0
:10008000A5002507A40B4128A500230825070F3943
:10009000A6000F3026060319FF284E280E3026062C
:1000A0000319F92853280D3026060319F328582878
:1000B0000C3026060319ED285D280B30260603199F
:1000C000E72862280A3026060319E1286728093044
:1000D00026060319DB286C28083026060319D528C4
:1000E0007128073026060319CF2876280630260601
:1000F0000319C9287B28053026060319C328802840
:10010000043026060319BD28852803302606031966
:10011000B7288A28023026060319B1288F28013013
:1001200026060319AB289428003026060319A528B3
:10013000A00B9C282308A0000F302306031DA30A50
:100140003C280230B121850198280000C030880089
:100150003F308700A1280000303088003F30870002
:10016000A12800000C3088003F308700A128000043
:10017000033088003F308700A1280000C03088008D
:10018000CF308700A128000030308800CF308700B2
:10019000A12800000C308800CF308700A128000083
:1001A00003308800CF308700A1280000C0308800CD
:1001B000F3308700A128000030308800F33087003A
:1001C000A12800000C308800F3308700A12800002F
:1001D00003308800F3308700A1280000C030880079
:1001E000FC308700A128000030308800FC308700F8
:1001F000A12800000C308800FC308700A1280000F6
:1002000003308800FC308700A12800302606031D3B
:100210000D29013085008601182804302606031DAB
:100220001828013085008601182801302606031D94
:100230001D29013085008601182805302606031D7A
:100240001828013085008601182802302606031D73
:100250002D29013085008601182806302606031D49
:100260001828013085008601182803302606031D52
:100270003D29013085008601182807302606031D18
:100280001828013085008601182808302606031D2D
:100290004D2901308500860118280C302606031DE3
:1002A0001828013085008601182809302606031D0C
:1002B0005D2901308500860118280D302606031DB2
:1002C000182801308500860118280A302606031DEB
:1002D0006D2901308500860118280E302606031D81
:1002E000182801308500860118280B302606031DCA
:1002F0007D2901308500860118280F302606031D50
:100300001828013085008601182811308100A700C7
:1003100008002C308100A700080042308100A700AF
:1003200008004D308100A700080060308100A70060
:10033000080072308100A700080082308100A70009
:10034000080088308100A70008008B168521013045
:10035000B12189210130B1218D210130B1218B12D0
:100360003C28AB000730A8002F30A9000330AA00BA
:10037000A80BBB29A90BBD29AA0BB829AB03031DE8
:08038000B229C22900000800A7
:02400E00F43F7D
:00000001FF
