:020000040000FA
:020000002028B6
:040002000034003492
:0800080005280B180828090067
:1000100006182529861837290619492986195B29C2
:10002000061A6D29861A7F29061B9129861BA3298A
:100030000B1005302806031D0900A90AA8010900B4
:100040008312031388308B0083160313FF3086005E
:1000500085018701880189018316031788018901B9
:1000600083160313FF309600831283120313850156
:1000700086018701880189010530A3000430A000B2
:10008000A101A6010130A900A801A4010230A40029
:100090002008A5002507A40B4A28A500230825074A
:1000A0000F39A6000F30260603191F2957280E30D6
:1000B0002606031919295C280D3026060319132971
:1000C00061280C30260603190D2966280B302606F8
:1000D000031907296B280A302606031901297028FD
:1000E000093026060319FB2875280830260603194F
:1000F000F5287A28073026060319EF287F280630CE
:1001000026060319E9288428053026060319E32862
:100110008928043026060319DD288E280330260698
:100120000319D7289328023026060319D1289828C6
:10013000013026060319CB289D2800302606031916
:10014000C528A00BA5282308A0000F302306031DF7
:10015000A30A4528013029060319BA2802302906C6
:100160000319BD28033029060319C0280130A9004E
:10017000A801A1280230D921A1280130D921A12824
:10018000FF30EC21FF30EC21A1280000C0308800B6
:100190003F308700AA280000303088003F308700B9
:1001A000AA2800000C3088003F308700AA280000F1
:1001B000033088003F308700AA280000C030880044
:1001C000CF308700AA28000030308800CF30870069
:1001D000AA2800000C308800CF308700AA28000031
:1001E00003308800CF308700AA280000C030880084
:1001F000F3308700AA28000030308800F3308700F1
:10020000AA2800000C308800F3308700AA280000DC
:1002100003308800F3308700AA280000C03088002F
:10022000FC308700AA28000030308800FC308700AE
:10023000AA2800000C308800FC308700AA280000A3
:1002400003308800FC308700AA288501003026068C
:10025000031D2F29A80A01308500860118280430C3
:100260002606031DB5290130850086011828850161
:1002700001302606031D4129A80A013085008601A8
:10028000182805302606031DB52901308500860192
:100290001828850102302606031D5329A80A0130BB
:1002A00085008601182806302606031DB529013071
:1002B000850086011828850103302606031D65295F
:1002C000A80A013085008601182807302606031D7C
:1002D000B5290130850086011828850108302606D9
:1002E000031D7729A80A01308500860118280C30E3
:1002F0002606031DB52901308500860118288501D1
:1003000009302606031D8929A80A013085008601C7
:1003100018280D302606031DB529013085008601F9
:10032000182885010A302606031D9B29A80A0130DA
:100330008500860118280E302606031DB5290130D8
:1003400085008601182885010B302606031DAD297E
:10035000A80A01308500860118280F302606031DE3
:10036000B529013085008601182802308500A801D2
:10037000182811308100A70008002C308100A70048
:10038000080042308100A70008004D308100A7001E
:10039000080060308100A700080072308100A700CB
:1003A000080082308100A700080088308100A70083
:1003B0000800AD000730AA002F30AB000330AC00BE
:1003C000AA0BE329AB0BE529AC0BE029AD03031D18
:1003D000DA29EA2900000800AE00F830FF3E031DCC
:1003E000EE29AE0303190800F5290000F830EE29C4
:02400E00F43F7D
:00000001FF
