:020000040000FA
:020000001A28BC
:040002000034003492
:0800080005280B180828090067
:10001000061804298618152906192629861937294C
:10002000061A4829861A5929061B6A29861B7B2924
:100030000B1009008312031388308B0083160313FF
:10004000FF30860085018701880189018316031727
:100050008801890183160313FF30960083128312EF
:100060000313850186018701880189010530A300FA
:100070000430A000A101A601A4010230A4002008C0
:10008000A5002507A40B4128A500230825070F3943
:10009000A6000F3026060319FE284E280E3026062D
:1000A0000319F82853280D3026060319F22858287A
:1000B0000C3026060319EC285D280B3026060319A0
:1000C000E62862280A3026060319E0286728093046
:1000D00026060319DA286C28083026060319D428C6
:1000E0007128073026060319CE2876280630260602
:1000F0000319C8287B28053026060319C228802842
:10010000043026060319BC28852803302606031967
:10011000B6288A28023026060319B0288F28013015
:1001200026060319AA289428003026060319A428B5
:10013000A00B9C282308A0000F302306031DA30A50
:100140003C280230BB2198280000C03088003F3096
:100150008700A1280000303088003F308700A128A8
:1001600000000C3088003F308700A12800000330D9
:1001700088003F308700A1280000C0308800CF30C1
:100180008700A128000030308800CF308700A128E8
:1001900000000C308800CF308700A1280000033019
:1001A0008800CF308700A1280000C0308800F330DD
:1001B0008700A128000030308800F3308700A12894
:1001C00000000C308800F3308700A12800000330C5
:1001D0008800F3308700A1280000C0308800FC3080
:1001E0008700A128000030308800FC308700A1285B
:1001F00000000C308800FC308700A128000003308C
:100200008800FC308700A128850100302606031DE8
:100210000D29013085008601182804302606031DAB
:100220008C290130850086011828850101302606B9
:10023000031D1E2901308500860118280530260679
:10024000031D8C29013085008601182885010230A4
:100250002606031D2F290130850086011828063047
:100260002606031D8C29013085008601182885018A
:1002700003302606031D4029013085008601182819
:1002800007302606031D8C290130850086011828B9
:10029000850108302606031D51290130850086019D
:1002A00018280C302606031D8C2901308500860194
:1002B0001828850109302606031D622901308500B2
:1002C000860118280D302606031D8C290130850073
:1002D0008601182885010A302606031D732901307E
:1002E0008500860118280E302606031D8C29013052
:1002F00085008601182885010B302606031D8429F8
:1003000001308500860118280F302606031D8C2930
:100310000130850086011828023085001828113028
:100320008100A70008002C308100A700080042309F
:100330008100A70008004D308100A7000800603050
:100340008100A700080072308100A70008008230F9
:100350008100A700080088308100A70008008B16E4
:100360008F210130BB2193210130BB219721013026
:10037000BB218B123C28AB000730A8002F30A9000E
:100380000330AA00A80BC529A90BC729AA0BC229AB
:0C039000AB03031DBC29CC2900000800B1
:02400E00F43F7D
:00000001FF
