:020000040000FA
:02000000DA28FC
:040002000034003492
:0800080005280B180A280B194A
:10001000CF280900061823288618382806194D28E5
:1000200086196228061A7728861A8C28061BA128AA
:10003000861BB5280B10280802302806031D09006E
:10004000A90AA8010900850100302606031D2E28F3
:10005000AA01A80A0130850086011A280430260664
:10006000031DCA2801308500AA018601A80A1A28A2
:10007000850101302606031D4328AA01A80A013084
:10008000850086011A2805302606031DCA2801307E
:100090008500AA018601A80A1A28850102302606D1
:1000A000031D5828AA01A80A0130850086011A28D4
:1000B00006302606031DCA2801308500AA018601E4
:1000C000A80A1A28850103302606031D6D28AA01F7
:1000D000A80A0130850086011A2807302606031D6C
:1000E000CA2801308500AA018601A80A1A288501BC
:1000F00008302606031D8228AA01A80A01308500BF
:1001000086011A280C302606031DCA2801308500F6
:10011000AA018601A80A1A28850109302606031DAE
:100120009728AA01A80A0130850086011A280D30F7
:100130002606031DCA2801308500AA018601A80AE7
:100140001A2885010A302606031DAC28A80A0130AA
:10015000850086011A280E302606031DCA280130A4
:100160008500AA018601A80A1A2885010B302606F7
:10017000031DC028AA01A80A0130850086011A289B
:100180000F302606031DCA2801308500AA0186010A
:10019000A80A1A2802308500AA0AA8011A280B11F9
:1001A0000919D6280915270881000900091127080F
:1001B00081000900831603130130810088308B0011
:1001C00083160313FF3086008501870188018901AA
:1001D000831603178801890183160313FF309600E5
:1001E0008312831203138501860187018801890127
:1001F0008B160122013021220522013021228B128F
:10020000023021220530A3000430A000A101A60184
:100210000130A900A801AA01AB01A4010230A40089
:100220002008A5002507A40B1229A50023082507EF
:100230000F39A6000F3026060319FB291F290E309F
:1002400026060319F52924290D3026060319EF295E
:1002500029290C3026060319E9292E290B302606F8
:100260000319E32933290A3026060319DD29382921
:10027000093026060319D7293D2908302606031917
:10028000D1294229073026060319CB2947290630F0
:1002900026060319C5294C29053026060319BF294E
:1002A0005129043026060319B92956290330260698
:1002B0000319B3295B29023026060319AD296029E9
:1002C000013026060319A7296529003026060319DF
:1002D000A12903302A0603199329A00B71292308A9
:1002E000A0000F302306031DA30A0D2901302906A3
:1002F00003198629023029060319892903302906A2
:1003000003198C290130A900A80169290230212292
:1003100069290230212269290230280603199A2905
:100320000230212269298B160522013021228B12ED
:10033000000098298B160522013021228B12000023
:100340009F290000C03088003F30870076290000D8
:10035000303088003F308700762900000C3088005C
:100360003F30870076290000033088003F30870047
:1003700076290000C0308800CF3087007629000041
:1003800030308800CF308700762900000C3088009C
:10039000CF3087007629000003308800CF308700F7
:1003A00076290000C0308800F330870076290000ED
:1003B00030308800F3308700762900000C30880048
:1003C000F33087007629000003308800F33087007F
:1003D00076290000C0308800FC30870076290000B4
:1003E00030308800FC308700762900000C3088000F
:1003F000FC3087007629000003308800FC3087003D
:10040000762911308100A70008002C308100A70058
:10041000080042308100A70008004D308100A7008D
:10042000080060308100A700080072308100A7003A
:10043000080082308100A700080088308100A700F2
:100440000800AF000730AC002F30AD000330AE0025
:10045000AC0B2B2AAD0B2D2AAE0B282AAF03031DA4
:10046000222A322A00000800B000F830FF3E031DA7
:10047000362AB003031908003D2A0000F830362A56
:02400E00F43F7D
:00000001FF
