:020000040000FA
:020000000528D1
:040002000034003492
:08000800272883160317880165
:10001000890183160313FF3086008701880183124C
:10002000031385018701880186010130A200A30125
:10003000A401A501A0018316031307308100B0308D
:100040008B0083120313D9308100000025280B1D7B
:10005000472820080319382823085F20A500250811
:10006000831203130814881487008810A0094328FA
:1000700022085F20A40024088312031308148814A4
:1000800087000810A0090B11D83081005428A30A5A
:1000900006302302031D5328A301A20A04302202C2
:1000A000031D5328A2018B100900A30A8312031316
:1000B00005105328A20A8312031305105328820740
:1000C0003F3406345B344F3466346D347D3407344A
:1000D0007F346734A700F830FF3E031D6C28A70368
:0C00E0000319080073280000F8306C2899
:02400E00F03F81
:00000001FF
