:020000040000FA
:020000000528D1
:040002000034003492
:080008002C2883160317880160
:10001000890183160313FF3086008701880183124C
:10002000031385018701880186010130A200A30125
:10003000A401A501A001A7018316031307308100C5
:10004000A8308B0083120313D93081008316031369
:100050000330960000002A280B184E280B1D0900BB
:10006000200803193F2823087520A50025088312BE
:1000700003130814881487008810A0094A2822084E
:100080007520A40024088312031308148814870021
:100090000810A0090B11D830810009000618542857
:1000A000861863280B1009000B10A701A30A023061
:1000B0002302031D0900A301A20A04302202031D2A
:1000C0000900A20170280B10A70A033027020319A8
:1000D0006B28A30109000A30A2000030A300090028
:1000E0000630A2000630A300090082073F34063420
:1000F0005B344F3466346D347D3407347F34673479
:100100007334A800F830FF3E031D8328A8030319A9
:0A01100008008A280000F830832858
:02400E00F03F81
:00000001FF
